:100000009300f07f93801040138100039301000e52
:10001000370500b093051500130a7007930a100600
:10002000130b3007930b4006130c00002300310024
:1000300003060500e30e06fe230005000386050007
:10004000630c56016302760363084603630e66037e
:100050006ff05fff000000001301f1ff230031008b
:100060006ff01ffd0000000013011100230031009c
:100070006ff01ffc00000000130101fe230031009f
:100080006ff01ffb0000000013010102230031008c
:100090006ff01ffa000000000000000000000000e8
:100c3000e0e0e0e0e0e0e0e0e0e0e0000000000014
:100c4000000000e0e0e0e0e0e0e0e0e0e0e0e0e044
:100c5000e0e0e000000000000000e0000000000014
:100c6000000000e000000000000000000000e0e0e4
:100c700000e0e000000000000000e00000000000d4
:100c8000000000e0000000e0e0e0e0e0e0e0e0e0a4
:100c9000e0e0e000000000000000e00000000000d4
:100ca000000000e0000000e0e0e0e0e0e0e0e0e084
:100cb000e0e0e000000000000000e00000000000b4
:100cc000000000e0000000e0e0e0e0e0e0e0e0e064
:100cd000e0e0e000000000000000e0000000000094
:100ce000000000e0000000e0e0e0e0e0e0e0e0e044
:100cf000e0e0e000000000000000e0000000000074
:100d0000000000e0000000e0e0e0e000e0e0e0e003
:100d1000e0e0e000000000000000e0000000000053
:100d2000000000e0000000e0e0e0e000e0e0e0e0e3
:100d3000e0e0e000000000000000e0000000000033
:100d4000000000e0000000e0e0e0e000e0e0e0e0c3
:100d5000e0e0e000000000000000e0000000000013
:100d6000000000e0000000e0e0e0e000e000e0e083
:100d7000e0e0e000000000000000e00000000000f3
:100d8000000000e0000000e0e0e0e0e0e0e0e0e0a3
:100d9000e0e0e0e0e0e0e0e0e0e0e00000000000b3
:100da000000000e0000000e0e0e0e0e0e0e0e0e083
:100db000e0e0e0e0e0e0e0e0e0e0e0e0e0000000d3
:100dc000e0e0e0e0e0e0e0e0e0e0e0e0e0e0e0e023
:100dd000e0e0e0000000000000000000e000000093
:100de00000e000e0000000e0e0e0e0e0e0e0e0e063
:100df000e0e0e0000000000000000000e000000073
:100e000000e000e0000000e0e0e0e0e0e0e0e0e042
:100e1000e0e0e0000000000000000000e000000052
:100e200000e000e00000000000e000000000000022
:100e30000000e0000000000000000000e0000000f2
:100e400000e000e00000000000e000000000000002
:100e50000000e0000000000000000000e0000000d2
:100e600000e000e00000000000e0000000000000e2
:100e70000000e0000000000000000000e0000000b2
:100e800000e000e00000000000e0000000000000c2
:100e90000000e0000000000000000000e000000092
:100ea00000e000e00000000000e0000000000000a2
:100eb0000000e0000000000000000000e000000072
:100ec00000e000e00000000000e000000000000082
:100ed0000000e0000000000000000000e000000052
:100ee00000e000e00000000000e000000000000062
:100ef0000000e0000000000000000000e000000032
:100f000000e0e0e0e0e0e0e0e0e0e0e0e0e0e0e0c1
:100f1000e0e0e0e0e0e0e0e0e0e00000e000000031
:100f2000000000e0000000000000000000000000e1
:100f3000000000000000000000e00000e0000000f1
:100f4000000000e0000000000000000000000000c1
:100f5000000000000000000000e00000e0000000d1
:100f6000000000e0000000000000000000000000a1
:100f7000000000000000000000e00000e0000000b1
:100f8000000000e000000000000000000000000081
:100f9000000000000000000000e00000e000000091
:100fa000000000e0000000000000000000e0e0e0c1
:100fb000e0e0e0e0e0e0e0e0e0e0e0e0e0000000d1
:100fc000000000e000000000000000000000000041
:100fd000000000000000000000e000000000000031
:100fe000000000e0e0e0e0e0e0e0e0e0e0e0e0e0a1
:100ff000e0e0e0e0e0e0e0e0e0e000000000000031
:00000001FF